{
  "_format": "hh-sol-artifact-1",
  "contractName": "TokenLaunchpad",
  "sourceName": "contracts/TokenLaunchpad.sol",
  "abi": [
    {
      "inputs": [],
      "stateMutability": "nonpayable",
      "type": "constructor"
    },
    {
      "anonymous": false,
      "inputs": [
        {
          "indexed": true,
          "internalType": "address",
          "name": "tokenAddress",
          "type": "address"
        },
        {
          "indexed": false,
          "internalType": "string",
          "name": "name",
          "type": "string"
        },
        {
          "indexed": false,
          "internalType": "string",
          "name": "symbol",
          "type": "string"
        }
      ],
      "name": "TokenCreated",
      "type": "event"
    },
    {
      "inputs": [
        {
          "internalType": "address",
          "name": "tokenAddress",
          "type": "address"
        },
        {
          "internalType": "uint256",
          "name": "amount",
          "type": "uint256"
        }
      ],
      "name": "buyToken",
      "outputs": [],
      "stateMutability": "payable",
      "type": "function"
    },
    {
      "inputs": [
        {
          "internalType": "string",
          "name": "name",
          "type": "string"
        },
        {
          "internalType": "string",
          "name": "symbol",
          "type": "string"
        }
      ],
      "name": "createToken",
      "outputs": [
        {
          "internalType": "address",
          "name": "",
          "type": "address"
        }
      ],
      "stateMutability": "nonpayable",
      "type": "function"
    },
    {
      "inputs": [
        {
          "internalType": "address",
          "name": "tokenAddress",
          "type": "address"
        }
      ],
      "name": "getTokenPrice",
      "outputs": [
        {
          "internalType": "uint256",
          "name": "",
          "type": "uint256"
        }
      ],
      "stateMutability": "view",
      "type": "function"
    },
    {
      "inputs": [],
      "name": "owner",
      "outputs": [
        {
          "internalType": "address",
          "name": "",
          "type": "address"
        }
      ],
      "stateMutability": "view",
      "type": "function"
    },
    {
      "inputs": [
        {
          "internalType": "address",
          "name": "tokenAddress",
          "type": "address"
        },
        {
          "internalType": "uint256",
          "name": "amount",
          "type": "uint256"
        }
      ],
      "name": "sellToken",
      "outputs": [],
      "stateMutability": "nonpayable",
      "type": "function"
    },
    {
      "inputs": [
        {
          "internalType": "address",
          "name": "",
          "type": "address"
        }
      ],
      "name": "tokenPrices",
      "outputs": [
        {
          "internalType": "uint256",
          "name": "",
          "type": "uint256"
        }
      ],
      "stateMutability": "view",
      "type": "function"
    },
    {
      "inputs": [
        {
          "internalType": "address",
          "name": "",
          "type": "address"
        }
      ],
      "name": "tokens",
      "outputs": [
        {
          "internalType": "address",
          "name": "",
          "type": "address"
        }
      ],
      "stateMutability": "view",
      "type": "function"
    }
  ],
  "bytecode": "0x608060405234801561001057600080fd5b50600080546001600160a01b031916331790556116da806100326000396000f3fe608060405260043610620000795760003560e01c80638da5cb5b11620000545780638da5cb5b1462000119578063d02641a0146200013b578063e48603391462000175578063f464e7db14620001af57600080fd5b8063204120bc146200007e5780632f2f2d5614620000c257806368f8fc101462000100575b600080fd5b3480156200008b57600080fd5b50620000af6200009d36600462000833565b60016020526000908152604090205481565b6040519081526020015b60405180910390f35b348015620000cf57600080fd5b50620000e7620000e1366004620008a5565b620001d4565b6040516001600160a01b039091168152602001620000b9565b620001176200011136600462000857565b62000313565b005b3480156200012657600080fd5b50600054620000e7906001600160a01b031681565b3480156200014857600080fd5b50620000af6200015a36600462000833565b6001600160a01b031660009081526001602052604090205490565b3480156200018257600080fd5b50620000e76200019436600462000833565b6002602052600090815260409020546001600160a01b031681565b348015620001bc57600080fd5b5062000117620001ce36600462000857565b62000565565b600080546001600160a01b03163314620002435760405162461bcd60e51b815260206004820152602560248201527f4f6e6c7920746865206f776e65722063616e2063616c6c20746869732066756e60448201526431ba34b7b760d91b60648201526084015b60405180910390fd5b60006b033b2e3c9fd0803ce80000009050600084848330604051620002689062000779565b620002779493929190620009a6565b604051809103906000f08015801562000294573d6000803e3d6000fd5b506001600160a01b038116600081815260026020908152604080832080546001600160a01b031916851790556001909152908190206064905551919250907fffc04f682c7b287e4b552dacd4b833d7c33dc0549cd6da84388408e4830c05629062000303908890889062000974565b60405180910390a2949350505050565b6001600160a01b038216600090815260016020526040812054670de0b6b3a7640000906200034390849062000a2d565b6200034f919062000a0c565b905080341015620003a35760405162461bcd60e51b815260206004820152601760248201527f496e73756666696369656e742045746865722073656e7400000000000000000060448201526064016200023a565b6040516370a0823160e01b8152306004820152839083906001600160a01b038316906370a082319060240160206040518083038186803b158015620003e757600080fd5b505afa158015620003fc573d6000803e3d6000fd5b505050506040513d601f19601f820116820180604052508101906200042291906200090d565b1015620004725760405162461bcd60e51b815260206004820152601b60248201527f4e6f7420656e6f75676820746f6b656e7320617661696c61626c65000000000060448201526064016200023a565b60405163a9059cbb60e01b8152336004820152602481018490526001600160a01b0382169063a9059cbb90604401602060405180830381600087803b158015620004bb57600080fd5b505af1158015620004d0573d6000803e3d6000fd5b505050506040513d601f19601f82011682018060405250810190620004f6919062000883565b506001600160a01b0384166000908152600160205260409020546200051e9060649062000a0c565b6001600160a01b038516600090815260016020526040902054620005439190620009f1565b6001600160a01b03909416600090815260016020526040902093909355505050565b6040516370a0823160e01b8152336004820152829082906001600160a01b038316906370a082319060240160206040518083038186803b158015620005a957600080fd5b505afa158015620005be573d6000803e3d6000fd5b505050506040513d601f19601f82011682018060405250810190620005e491906200090d565b1015620006345760405162461bcd60e51b815260206004820152601a60248201527f496e73756666696369656e7420746f6b656e2062616c616e636500000000000060448201526064016200023a565b6001600160a01b038316600090815260016020526040812054670de0b6b3a7640000906200066490859062000a2d565b62000670919062000a0c565b6040516323b872dd60e01b8152336004820152306024820152604481018590529091506001600160a01b038316906323b872dd90606401602060405180830381600087803b158015620006c257600080fd5b505af1158015620006d7573d6000803e3d6000fd5b505050506040513d601f19601f82011682018060405250810190620006fd919062000883565b50604051339082156108fc029083906000818181858888f193505050501580156200072c573d6000803e3d6000fd5b506001600160a01b038416600090815260016020526040902054620007549060649062000a0c565b6001600160a01b03851660009081526001602052604090205462000543919062000a4f565b610c0f8062000a9683390190565b80356001600160a01b03811681146200079f57600080fd5b919050565b600082601f830112620007b5578081fd5b813567ffffffffffffffff80821115620007d357620007d362000a7f565b604051601f8301601f19908116603f01168101908282118183101715620007fe57620007fe62000a7f565b8160405283815286602085880101111562000817578485fd5b8360208701602083013792830160200193909352509392505050565b60006020828403121562000845578081fd5b620008508262000787565b9392505050565b600080604083850312156200086a578081fd5b620008758362000787565b946020939093013593505050565b60006020828403121562000895578081fd5b8151801515811462000850578182fd5b60008060408385031215620008b8578182fd5b823567ffffffffffffffff80821115620008d0578384fd5b620008de86838701620007a4565b93506020850135915080821115620008f4578283fd5b506200090385828601620007a4565b9150509250929050565b6000602082840312156200091f578081fd5b5051919050565b60008151808452815b818110156200094d576020818501810151868301820152016200092f565b818111156200095f5782602083870101525b50601f01601f19169290920160200192915050565b60408152600062000989604083018562000926565b82810360208401526200099d818562000926565b95945050505050565b608081526000620009bb608083018762000926565b8281036020840152620009cf818762000926565b604084019590955250506001600160a01b039190911660609091015292915050565b6000821982111562000a075762000a0762000a69565b500190565b60008262000a2857634e487b7160e01b81526012600452602481fd5b500490565b600081600019048311821515161562000a4a5762000a4a62000a69565b500290565b60008282101562000a645762000a6462000a69565b500390565b634e487b7160e01b600052601160045260246000fd5b634e487b7160e01b600052604160045260246000fdfe60806040523480156200001157600080fd5b5060405162000c0f38038062000c0f8339810160408190526200003491620002a1565b8351849084906200004d90600390602085019062000148565b5080516200006390600490602084019062000148565b5050506200007881836200008260201b60201c565b50505050620003aa565b6001600160a01b038216620000dd5760405162461bcd60e51b815260206004820152601f60248201527f45524332303a206d696e7420746f20746865207a65726f206164647265737300604482015260640160405180910390fd5b8060026000828254620000f1919062000332565b90915550506001600160a01b038216600081815260208181526040808320805486019055518481527fddf252ad1be2c89b69c2b068fc378daa952ba7f163c4a11628f55a4df523b3ef910160405180910390a35050565b828054620001569062000357565b90600052602060002090601f0160209004810192826200017a5760008555620001c5565b82601f106200019557805160ff1916838001178555620001c5565b82800160010185558215620001c5579182015b82811115620001c5578251825591602001919060010190620001a8565b50620001d3929150620001d7565b5090565b5b80821115620001d35760008155600101620001d8565b600082601f830112620001ff578081fd5b81516001600160401b03808211156200021c576200021c62000394565b604051601f8301601f19908116603f0116810190828211818310171562000247576200024762000394565b8160405283815260209250868385880101111562000263578485fd5b8491505b8382101562000286578582018301518183018401529082019062000267565b838211156200029757848385830101525b9695505050505050565b60008060008060808587031215620002b7578384fd5b84516001600160401b0380821115620002ce578586fd5b620002dc88838901620001ee565b95506020870151915080821115620002f2578485fd5b506200030187828801620001ee565b60408701516060880151919550935090506001600160a01b038116811462000327578182fd5b939692955090935050565b600082198211156200035257634e487b7160e01b81526011600452602481fd5b500190565b600181811c908216806200036c57607f821691505b602082108114156200038e57634e487b7160e01b600052602260045260246000fd5b50919050565b634e487b7160e01b600052604160045260246000fd5b61085580620003ba6000396000f3fe608060405234801561001057600080fd5b50600436106100a95760003560e01c80633950935111610071578063395093511461012357806370a082311461013657806395d89b411461015f578063a457c2d714610167578063a9059cbb1461017a578063dd62ed3e1461018d57600080fd5b806306fdde03146100ae578063095ea7b3146100cc57806318160ddd146100ef57806323b872dd14610101578063313ce56714610114575b600080fd5b6100b66101a0565b6040516100c3919061076d565b60405180910390f35b6100df6100da366004610744565b610232565b60405190151581526020016100c3565b6002545b6040519081526020016100c3565b6100df61010f366004610709565b61024a565b604051601281526020016100c3565b6100df610131366004610744565b61026e565b6100f36101443660046106b6565b6001600160a01b031660009081526020819052604090205490565b6100b6610290565b6100df610175366004610744565b61029f565b6100df610188366004610744565b61031f565b6100f361019b3660046106d7565b61032d565b6060600380546101af906107e4565b80601f01602080910402602001604051908101604052809291908181526020018280546101db906107e4565b80156102285780601f106101fd57610100808354040283529160200191610228565b820191906000526020600020905b81548152906001019060200180831161020b57829003601f168201915b5050505050905090565b600033610240818585610358565b5060019392505050565b60003361025885828561047c565b6102638585856104f6565b506001949350505050565b600033610240818585610281838361032d565b61028b91906107c0565b610358565b6060600480546101af906107e4565b600033816102ad828661032d565b9050838110156103125760405162461bcd60e51b815260206004820152602560248201527f45524332303a2064656372656173656420616c6c6f77616e63652062656c6f77604482015264207a65726f60d81b60648201526084015b60405180910390fd5b6102638286868403610358565b6000336102408185856104f6565b6001600160a01b03918216600090815260016020908152604080832093909416825291909152205490565b6001600160a01b0383166103ba5760405162461bcd60e51b8152602060048201526024808201527f45524332303a20617070726f76652066726f6d20746865207a65726f206164646044820152637265737360e01b6064820152608401610309565b6001600160a01b03821661041b5760405162461bcd60e51b815260206004820152602260248201527f45524332303a20617070726f766520746f20746865207a65726f206164647265604482015261737360f01b6064820152608401610309565b6001600160a01b0383811660008181526001602090815260408083209487168084529482529182902085905590518481527f8c5be1e5ebec7d5bd14f71427d1e84f3dd0314c0f7b2291e5b200ac8c7c3b925910160405180910390a3505050565b6000610488848461032d565b905060001981146104f057818110156104e35760405162461bcd60e51b815260206004820152601d60248201527f45524332303a20696e73756666696369656e7420616c6c6f77616e63650000006044820152606401610309565b6104f08484848403610358565b50505050565b6001600160a01b03831661055a5760405162461bcd60e51b815260206004820152602560248201527f45524332303a207472616e736665722066726f6d20746865207a65726f206164604482015264647265737360d81b6064820152608401610309565b6001600160a01b0382166105bc5760405162461bcd60e51b815260206004820152602360248201527f45524332303a207472616e7366657220746f20746865207a65726f206164647260448201526265737360e81b6064820152608401610309565b6001600160a01b038316600090815260208190526040902054818110156106345760405162461bcd60e51b815260206004820152602660248201527f45524332303a207472616e7366657220616d6f756e7420657863656564732062604482015265616c616e636560d01b6064820152608401610309565b6001600160a01b03848116600081815260208181526040808320878703905593871680835291849020805487019055925185815290927fddf252ad1be2c89b69c2b068fc378daa952ba7f163c4a11628f55a4df523b3ef910160405180910390a36104f0565b80356001600160a01b03811681146106b157600080fd5b919050565b6000602082840312156106c7578081fd5b6106d08261069a565b9392505050565b600080604083850312156106e9578081fd5b6106f28361069a565b91506107006020840161069a565b90509250929050565b60008060006060848603121561071d578081fd5b6107268461069a565b92506107346020850161069a565b9150604084013590509250925092565b60008060408385031215610756578182fd5b61075f8361069a565b946020939093013593505050565b6000602080835283518082850152825b818110156107995785810183015185820160400152820161077d565b818111156107aa5783604083870101525b50601f01601f1916929092016040019392505050565b600082198211156107df57634e487b7160e01b81526011600452602481fd5b500190565b600181811c908216806107f857607f821691505b6020821081141561081957634e487b7160e01b600052602260045260246000fd5b5091905056fea2646970667358221220d63ad27841ccc54f2b9931f7c3bef25f80ea3b159be213d562925fc95930bd7d64736f6c63430008040033a2646970667358221220822a5482efc9cb7970be33c12a1da9f53794b530360ee519b7093b93d2ffd75464736f6c63430008040033",
  "linkReferences": {},
  "deployedLinkReferences": {}
}